{
  "contractName": "PowerXchange",
  "abi": [
    {
      "anonymous": false,
      "inputs": [
        {
          "indexed": false,
          "internalType": "uint256",
          "name": "id",
          "type": "uint256"
        },
        {
          "indexed": false,
          "internalType": "address",
          "name": "producer",
          "type": "address"
        },
        {
          "indexed": false,
          "internalType": "uint256",
          "name": "amount",
          "type": "uint256"
        },
        {
          "indexed": false,
          "internalType": "uint256",
          "name": "price",
          "type": "uint256"
        }
      ],
      "name": "CreditCreated",
      "type": "event"
    },
    {
      "anonymous": false,
      "inputs": [
        {
          "indexed": false,
          "internalType": "uint256",
          "name": "id",
          "type": "uint256"
        },
        {
          "indexed": false,
          "internalType": "address",
          "name": "buyer",
          "type": "address"
        }
      ],
      "name": "CreditSold",
      "type": "event"
    },
    {
      "inputs": [
        {
          "internalType": "address",
          "name": "",
          "type": "address"
        },
        {
          "internalType": "uint256",
          "name": "",
          "type": "uint256"
        }
      ],
      "name": "creditsOwned",
      "outputs": [
        {
          "internalType": "uint256",
          "name": "",
          "type": "uint256"
        }
      ],
      "stateMutability": "view",
      "type": "function",
      "constant": true
    },
    {
      "inputs": [
        {
          "internalType": "uint256",
          "name": "",
          "type": "uint256"
        }
      ],
      "name": "energyCredits",
      "outputs": [
        {
          "internalType": "uint256",
          "name": "id",
          "type": "uint256"
        },
        {
          "internalType": "address",
          "name": "producer",
          "type": "address"
        },
        {
          "internalType": "uint256",
          "name": "amount",
          "type": "uint256"
        },
        {
          "internalType": "uint256",
          "name": "price",
          "type": "uint256"
        },
        {
          "internalType": "bool",
          "name": "isSold",
          "type": "bool"
        }
      ],
      "stateMutability": "view",
      "type": "function",
      "constant": true
    },
    {
      "inputs": [],
      "name": "nextCreditId",
      "outputs": [
        {
          "internalType": "uint256",
          "name": "",
          "type": "uint256"
        }
      ],
      "stateMutability": "view",
      "type": "function",
      "constant": true
    },
    {
      "inputs": [
        {
          "internalType": "uint256",
          "name": "amount",
          "type": "uint256"
        },
        {
          "internalType": "uint256",
          "name": "price",
          "type": "uint256"
        }
      ],
      "name": "createEnergyCredit",
      "outputs": [],
      "stateMutability": "nonpayable",
      "type": "function"
    },
    {
      "inputs": [
        {
          "internalType": "uint256",
          "name": "id",
          "type": "uint256"
        }
      ],
      "name": "buyEnergyCredit",
      "outputs": [],
      "stateMutability": "payable",
      "type": "function",
      "payable": true
    },
    {
      "inputs": [],
      "name": "getCreditsOwned",
      "outputs": [
        {
          "internalType": "uint256[]",
          "name": "",
          "type": "uint256[]"
        }
      ],
      "stateMutability": "view",
      "type": "function",
      "constant": true
    }
  ],
  "bytecode": "0x608060405234801561001057600080fd5b50610aed806100206000396000f3fe6080604052600436106100555760003560e01c80632fed62c61461005a5780635af3dfb71461009b57806380ee542e146100c4578063ab13cfa014610101578063ef478c671461012c578063fc00b79814610148575b600080fd5b34801561006657600080fd5b50610081600480360381019061007c9190610657565b610173565b6040516100929594939291906106ef565b60405180910390f35b3480156100a757600080fd5b506100c260048036038101906100bd9190610742565b6101d6565b005b3480156100d057600080fd5b506100eb60048036038101906100e691906107ae565b610376565b6040516100f891906107ee565b60405180910390f35b34801561010d57600080fd5b506101166103a7565b60405161012391906108c7565b60405180910390f35b61014660048036038101906101419190610657565b61043c565b005b34801561015457600080fd5b5061015d610616565b60405161016a91906107ee565b60405180910390f35b60016020528060005260406000206000915090508060000154908060010160009054906101000a900473ffffffffffffffffffffffffffffffffffffffff16908060020154908060030154908060040160009054906101000a900460ff16905085565b6000808154809291906101e890610918565b91905055506040518060a0016040528060005481526020013373ffffffffffffffffffffffffffffffffffffffff1681526020018381526020018281526020016000151581525060016000805481526020019081526020016000206000820151816000015560208201518160010160006101000a81548173ffffffffffffffffffffffffffffffffffffffff021916908373ffffffffffffffffffffffffffffffffffffffff160217905550604082015181600201556060820151816003015560808201518160040160006101000a81548160ff021916908315150217905550905050600260003373ffffffffffffffffffffffffffffffffffffffff1673ffffffffffffffffffffffffffffffffffffffff16815260200190815260200160002060005490806001815401808255809150506001900390600052602060002001600090919091909150557f08513b5d9f146566c4004e38ca7cc0ae14603804c18bdd5fa25917215018b7c860005433848460405161036a9493929190610960565b60405180910390a15050565b6002602052816000526040600020818154811061039257600080fd5b90600052602060002001600091509150505481565b6060600260003373ffffffffffffffffffffffffffffffffffffffff1673ffffffffffffffffffffffffffffffffffffffff16815260200190815260200160002080548060200260200160405190810160405280929190818152602001828054801561043257602002820191906000526020600020905b81548152602001906001019080831161041e575b5050505050905090565b60006001600083815260200190815260200160002090508060040160009054906101000a900460ff16156104a5576040517f08c379a000000000000000000000000000000000000000000000000000000000815260040161049c90610a02565b60405180910390fd5b806003015434146104eb576040517f08c379a00000000000000000000000000000000000000000000000000000000081526004016104e290610a6e565b60405180910390fd5b60018160040160006101000a81548160ff0219169083151502179055508060010160009054906101000a900473ffffffffffffffffffffffffffffffffffffffff1673ffffffffffffffffffffffffffffffffffffffff166108fc349081150290604051600060405180830381858888f19350505050158015610572573d6000803e3d6000fd5b50600260003373ffffffffffffffffffffffffffffffffffffffff1673ffffffffffffffffffffffffffffffffffffffff1681526020019081526020016000208290806001815401808255809150506001900390600052602060002001600090919091909150557f791d8cb7a2f01596ab444f4629d0b40d8bad72e6e64fa1fcb711de08286e0b47823360405161060a929190610a8e565b60405180910390a15050565b60005481565b600080fd5b6000819050919050565b61063481610621565b811461063f57600080fd5b50565b6000813590506106518161062b565b92915050565b60006020828403121561066d5761066c61061c565b5b600061067b84828501610642565b91505092915050565b61068d81610621565b82525050565b600073ffffffffffffffffffffffffffffffffffffffff82169050919050565b60006106be82610693565b9050919050565b6106ce816106b3565b82525050565b60008115159050919050565b6106e9816106d4565b82525050565b600060a0820190506107046000830188610684565b61071160208301876106c5565b61071e6040830186610684565b61072b6060830185610684565b61073860808301846106e0565b9695505050505050565b600080604083850312156107595761075861061c565b5b600061076785828601610642565b925050602061077885828601610642565b9150509250929050565b61078b816106b3565b811461079657600080fd5b50565b6000813590506107a881610782565b92915050565b600080604083850312156107c5576107c461061c565b5b60006107d385828601610799565b92505060206107e485828601610642565b9150509250929050565b60006020820190506108036000830184610684565b92915050565b600081519050919050565b600082825260208201905092915050565b6000819050602082019050919050565b61083e81610621565b82525050565b60006108508383610835565b60208301905092915050565b6000602082019050919050565b600061087482610809565b61087e8185610814565b935061088983610825565b8060005b838110156108ba5781516108a18882610844565b97506108ac8361085c565b92505060018101905061088d565b5085935050505092915050565b600060208201905081810360008301526108e18184610869565b905092915050565b7f4e487b7100000000000000000000000000000000000000000000000000000000600052601160045260246000fd5b600061092382610621565b91507fffffffffffffffffffffffffffffffffffffffffffffffffffffffffffffffff8203610955576109546108e9565b5b600182019050919050565b60006080820190506109756000830187610684565b61098260208301866106c5565b61098f6040830185610684565b61099c6060830184610684565b95945050505050565b600082825260208201905092915050565b7f43726564697420616c726561647920736f6c6400000000000000000000000000600082015250565b60006109ec6013836109a5565b91506109f7826109b6565b602082019050919050565b60006020820190508181036000830152610a1b816109df565b9050919050565b7f496e636f72726563742076616c75652073656e74000000000000000000000000600082015250565b6000610a586014836109a5565b9150610a6382610a22565b602082019050919050565b60006020820190508181036000830152610a8781610a4b565b9050919050565b6000604082019050610aa36000830185610684565b610ab060208301846106c5565b939250505056fea26469706673582212204c9470ffe86e4fb2a3afd510c46504c6aa78f56b6a498aafa5b3d1ec6b047cce64736f6c63430008130033",
  "immutableReferences": {},
  "source": "// SPDX-License-Identifier: MIT\r\npragma solidity ^0.8.19;\r\n\r\ncontract PowerXchange {\r\n    struct EnergyCredit {\r\n        uint256 id;\r\n        address producer;\r\n        uint256 amount;\r\n        uint256 price;\r\n        bool isSold;\r\n    }\r\n\r\n    uint256 public nextCreditId;\r\n    mapping(uint256 => EnergyCredit) public energyCredits;\r\n    mapping(address => uint256[]) public creditsOwned;\r\n\r\n    event CreditCreated(uint256 id, address producer, uint256 amount, uint256 price);\r\n    event CreditSold(uint256 id, address buyer);\r\n\r\n    function createEnergyCredit(uint256 amount, uint256 price) external {\r\n        nextCreditId++;\r\n        energyCredits[nextCreditId] = EnergyCredit(nextCreditId, msg.sender, amount, price, false);\r\n        creditsOwned[msg.sender].push(nextCreditId);\r\n        emit CreditCreated(nextCreditId, msg.sender, amount, price);\r\n    }\r\n\r\n    function buyEnergyCredit(uint256 id) external payable {\r\n        EnergyCredit storage credit = energyCredits[id];\r\n        require(!credit.isSold, \"Credit already sold\");\r\n        require(msg.value == credit.price, \"Incorrect value sent\");\r\n\r\n        credit.isSold = true;\r\n        payable(credit.producer).transfer(msg.value);\r\n        creditsOwned[msg.sender].push(id);\r\n\r\n        emit CreditSold(id, msg.sender);\r\n    }\r\n\r\n    function getCreditsOwned() external view returns (uint256[] memory) {\r\n        return creditsOwned[msg.sender];\r\n    }\r\n}\r\n",
  "sourcePath": "C:\\Users\\noble\\OneDrive\\Documents\\PowerXchange\\contracts\\PowerXchange.sol",
  "compiler": {
    "name": "solc",
    "version": "0.8.19+commit.7dd6d404.Emscripten.clang"
  },
  "schemaVersion": "3.4.16",
  "updatedAt": "2024-07-22T14:19:21.022Z",
  "networkType": "ethereum",
  "devdoc": {
    "kind": "dev",
    "methods": {},
    "version": 1
  },
  "userdoc": {
    "kind": "user",
    "methods": {},
    "version": 1
  }
}